:1000000098060020A1130000991300009B13000024
:100010009D1300009D1300009D13000000000000D0
:100020000000000000000000000000009D13000020
:100030009D130000000000009D1300009D130000B0
:100040009D1300009D1300009D1300009D130000F0
:100050009D1300009D1300009D1300009D130000E0
:100060009D1300009D1300009D1300009D130000D0
:100070009D1300009D1300009D1300009D130000C0
:100080009D1300009D1300009D1300009D130000B0
:100090009D1300009D1300009D1300009D130000A0
:1000A0009D1300009D1300009D1300009D13000090
:1000B0009D1300009D1300009D1300009D13000080
:1000C0009D1300009D1300009D1300009D13000070
:1000D0009D1300009D1300009D1300009D13000060
:1000E0009D13000000000000000000009D130000B0
:1000F0009D1300009D1300009D1300009D13000040
:100100009D1300009D1300009D1300009D1300002F
:1001100000000000000000009D1300009D1300007F
:100120009D1300009D1300009D1300009D1300000F
:100130009D1300009D1300009D1300009D130000FF
:1001400000000000000000000000000000000000AF
:100150009D1300009D1300009D1300009D130000DF
:10016000000000000000000000000000000000008F
:10017000000000000000000000000000000000007F
:10018000000000000000000000000000000000006F
:10019000000000000000000000000000000000005F
:1001A000000000000000000000000000000000004F
:1001B0009D1300009D1300009D1300009D1300007F
:1001C0009D1300009D1300009D1300009D1300006F
:1001D0009D1300009D1300009D1300009D1300005F
:1001E0009D1300009D1300009D13000000000000FF
:1001F000000000009D1300009D1300009D130000EF
:100200009D1300009D13000000000000000000008E
:100210009D1300009D1300009D1300009D1300001E
:100220009D1300009D1300009D1300009D1300000E
:100230009D1300009D1300009D1300009D130000FE
:100240009D1300009D1300009D1300009D130000EE
:100250009D1300009D1300009D1300009D130000DE
:0C0260009D1300009D1300009D13000082
:1002700010B5054C237833B9044B13B10448AFF3E0
:1002800000800123237010BD6404002000000000E2
:100290000427000008B5034B1BB103490348AFF323
:1002A000008008BD00000000680400200427000052
:1002B00081F0004102E000BF83F0004330B54FEA17
:1002C00041044FEA430594EA050F08BF90EA020F84
:1002D0001FBF54EA000C55EA020C7FEA645C7FEA17
:1002E000655C00F0E2804FEA5454D4EB5555B8BF3A
:1002F0006D420CDD2C4480EA020281EA030382EAAB
:10030000000083EA010180EA020281EA0303362D3C
:1003100088BF30BD11F0004F4FEA01314FF4801C0F
:100320004CEA113102D0404261EB410113F0004F21
:100330004FEA03334CEA133302D0524263EB4303D8
:1003400094EA050F00F0A780A4F10104D5F1200E76
:100350000DDB02FA0EFC22FA05F2801841F10001D1
:1003600003FA0EF2801843FA05F359410EE0A5F1A5
:1003700020050EF1200E012A03FA0EFC28BF4CF0D6
:10038000020C43FA05F3C01851EBE37101F000458C
:1003900007D54FF0000EDCF1000C7EEB00006EEB99
:1003A0000101B1F5801F1BD3B1F5001F0CD3490823
:1003B0005FEA30004FEA3C0C04F101044FEA44527A
:1003C00012F5800F80F09A80BCF1004F08BF5FEA01
:1003D000500C50F1000041EB045141EA050130BDE1
:1003E0005FEA4C0C404141EB0101013C28BFB1F5F3
:1003F000801FE9D291F0000F04BF01460020B1FA3E
:1004000081F308BF2033A3F10B03B3F120020CDA10
:100410000C3208DD02F1140CC2F10C0201FA0CF0EE
:1004200021FA02F10CE002F11402D8BFC2F1200C53
:1004300001FA02F120FA0CFCDCBF41EA0C01904009
:10044000E41AA2BF01EB0451294330BD6FEA040452
:100450001F3C1CDA0C340EDC04F11404C4F120023D
:1004600020FA04F001FA02F340EA030021FA04F34F
:1004700045EA030130BDC4F10C04C4F1200220FAA6
:1004800002F001FA04F340EA0300294630BD21FAE4
:1004900004F0294630BD94F0000F83F4801306BFAA
:1004A00081F480110134013D4EE77FEA645C18BF9E
:1004B0007FEA655C29D094EA050F08BF90EA020F35
:1004C00005D054EA000C04BF1946104630BD91EA2D
:1004D000030F1EBF0021002030BD5FEA545C05D130
:1004E0004000494128BF41F0004130BD14F580046F
:1004F0003CBF01F5801130BD01F0004545F0FE41E3
:1005000041F470014FF0000030BD7FEA645C1ABF17
:10051000194610467FEA655C1CBF0B46024650EA4E
:10052000013406BF52EA033591EA030F41F400217A
:1005300030BD00BF90F0000F04BF0021704730B500
:100540004FF4806404F132044FF000054FF00001D5
:1005500050E700BF90F0000F04BF0021704730B596
:100560004FF4806404F1320410F0004548BF40426B
:100570004FF000013EE700BF42004FEAE2014FEAC0
:1005800031014FEA02701FBF12F07F4393F07F4F9B
:1005900081F06051704732F07F4208BF704793F09E
:1005A0007F4F04BF41F40021704730B54FF46074B1
:1005B00001F0004521F000411CE700BF50EA0102B4
:1005C00008BF704730B54FF000050AE050EA01025D
:1005D00008BF704730B511F0004502D5404261EBCD
:1005E00041014FF4806404F132045FEA915C3FF40E
:1005F000D8AE4FF003025FEADC0C18BF03325FEAAB
:10060000DC0C18BF033202EBDC02C2F1200300FA5B
:1006100003FC20FA02F001FA03FE40EA0E0021FA80
:1006200002F11444BDE600BF70B54FF0FF0C4CF46E
:10063000E06C1CEA11541DBF1CEA135594EA0C0F20
:1006400095EA0C0F00F0DEF82C4481EA030621EA5B
:100650004C5123EA4C5350EA013518BF52EA033596
:1006600041F4801143F4801338D0A0FB02CE4FF048
:100670000005E1FB02E506F00042E0FB03E54FF078
:100680000006E1FB03569CF0000F18BF4EF0010E70
:10069000A4F1FF04B6F5007F64F5407404D25FEA6C
:1006A0004E0E6D4146EB060642EAC62141EA55511F
:1006B0004FEAC52040EA5E504FEACE2EB4F1FD0C61
:1006C00088BFBCF5E06F1ED8BEF1004F08BF5FEADF
:1006D000500E50F1000041EB045170BD06F0004691
:1006E00046EA010140EA020081EA0301B4EB5C043E
:1006F000C2BFD4EB0C0541EA045170BD41F4801136
:100700004FF0000E013C00F3AB8014F1360FDEBF5A
:10071000002001F0004170BDC4F10004203C35DA36
:100720000C341BDC04F11404C4F1200500FA05F3B9
:1007300020FA04F001FA05F240EA020001F000425A
:1007400021F0004110EBD37021FA04F642EB0601D0
:100750005EEA430E08BF20EAD37070BDC4F10C04FA
:10076000C4F1200500FA04F320FA05F001FA04F2BE
:1007700040EA020001F0004110EBD37041F10001AA
:100780005EEA430E08BF20EAD37070BDC4F12005B5
:1007900000FA05F24EEA020E20FA04F301FA05F21D
:1007A00043EA020321FA04F001F0004121FA04F2C5
:1007B00020EA020000EBD3705EEA430E08BF20EA95
:1007C000D37070BD94F0000F0FD101F000464000CF
:1007D00041EB010111F4801F08BF013CF7D041EA51
:1007E000060195F0000F18BF704703F00046520055
:1007F00043EB030313F4801F08BF013DF7D043EA26
:100800000603704794EA0C0F0CEA135518BF95EADB
:100810000C0F0CD050EA410618BF52EA4306D1D162
:1008200081EA030101F000414FF0000070BD50EA81
:10083000410606BF1046194652EA430619D094EA0B
:100840000C0F02D150EA013613D195EA0C0F05D1F5
:1008500052EA03361CBF104619460AD181EA030149
:1008600001F0004141F0FE4141F470014FF0000001
:1008700070BD41F0FE4141F4780170BD70B54FF09C
:10088000FF0C4CF4E06C1CEA11541DBF1CEA13551C
:1008900094EA0C0F95EA0C0F00F0A7F8A4EB0504FE
:1008A00081EA030E52EA03354FEA013100F08880F5
:1008B0004FEA03334FF0805545EA131343EA1263BE
:1008C0004FEA022245EA111545EA10654FEA002673
:1008D0000EF000419D4208BF964244F1FD0404F52C
:1008E000407402D25B084FEA3202B61A65EB030588
:1008F0005B084FEA32024FF480104FF4002CB6EB45
:10090000020E75EB030E22BFB61A754640EA0C00C4
:100910005B084FEA3202B6EB020E75EB030E22BF04
:10092000B61A754640EA5C005B084FEA3202B6EB45
:10093000020E75EB030E22BFB61A754640EA9C0004
:100940005B084FEA3202B6EB020E75EB030E22BFD4
:10095000B61A754640EADC0055EA060E18D04FEA92
:10096000051545EA16754FEA06164FEAC30343EA32
:1009700052734FEAC2025FEA1C1CC0D111F4801FFF
:100980000BD141EA00014FF000004FF0004CB6E7F8
:1009900011F4801F04BF01430020B4F1FD0C88BF97
:1009A000BCF5E06F3FF6AFAEB5EB030C04BFB6EBA2
:1009B000020C5FEA500C50F1000041EB045170BD95
:1009C0000EF0004E4EEA113114EB5C04C2BFD4EBC2
:1009D0000C0541EA045170BD41F480114FF0000E46
:1009E000013C90E645EA060E8DE60CEA135594EAC2
:1009F0000C0F08BF95EA0C0F3FF43BAF94EA0C0FC5
:100A00000AD150EA01347FF434AF95EA0C0F7FF439
:100A100025AF104619462CE795EA0C0F06D152EA8D
:100A200003353FF4FDAE1046194622E750EA410671
:100A300018BF52EA43067FF4C5AE50EA41047FF482
:100A40000DAF52EA43057FF4EBAE12E74FF0FF3CE7
:100A500006E000BF4FF0010C02E000BF4FF0010CB8
:100A60004DF804CD4FEA410C7FEA6C5C4FEA430C31
:100A700018BF7FEA6C5C1BD001B050EA410C0CBF80
:100A800052EA430C91EA030F02BF90EA020F0020E2
:100A9000704710F1000F91EA030F58BF994208BF49
:100AA00090422CBFD8176FEAE37040F00100704706
:100AB0004FEA410C7FEA6C5C02D150EA013C07D15D
:100AC0004FEA430C7FEA6C5CD6D152EA033CD3D0A8
:100AD0005DF8040B704700BF8446104662468C46A2
:100AE0001946634600E000BF01B5FFF7B7FF0028D5
:100AF00048BF10F1000F01BD4DF808EDFFF7F4FFFE
:100B00000CBF012000205DF808FB00BF4DF808ED88
:100B1000FFF7EAFF34BF012000205DF808FB00BFAB
:100B20004DF808EDFFF7E0FF94BF012000205DF8CD
:100B300008FB00BF4DF808EDFFF7CEFF94BF012082
:100B400000205DF808FB00BF4DF808EDFFF7C4FF7B
:100B500034BF012000205DF808FB00BF4FEA410CC4
:100B60007FEA6C5C02D150EA013C0AD14FEA430CA7
:100B70007FEA6C5C02D152EA033C02D14FF00000E4
:100B800070474FF00100704738B514461D464528A0
:100B900014D82B2848D32B381A2848D8DFE800F07F
:100BA0001A47214728474747474747474747474747
:100BB000474747474747474747473900782806D1BF
:100BC000DDE9042320462946FFF72EFD01E0002041
:100BD000002138BDDDE9042320462946FFF76EFBDE
:100BE000F7E7DDE9042320462946FFF765FBF0E738
:100BF00000220023DDE90401FFF7A6FF10B9002061
:100C00000021E6E7DDE9042320462946FFF736FE0A
:100C1000DFE7DDE904230020064900F0E9FB224676
:100C20002B46FFF701FDD4E700200021D1E700208B
:100C30000021CEE7000024402DE9F0478146884698
:100C40001446002600274FF0010A0025444522DB08
:100C500019F804003038C21700FB05F30AFB023311
:100C6000A0FB0A011944FFF7A9FC02460B463046D7
:100C70003946FFF723FB06460F46A9004FEA8A03D1
:100C800041EA9A7213EB0A0342EB050513EB030AE0
:100C90006D41013CDAE730463946BDE8F087000097
:100CA00030B40024254620E01E4B00221A601E4B63
:100CB0001B68002B34D11C4B01221A601B4B1B6894
:100CC0003BB11A4B00221A60194B03EB8505285CD7
:100CD00024E0184B03EB8505285C53281ED1134BE9
:100CE00001221A601AE001340135032C12DC0123C1
:100CF000A3400C4A136000231846032BF3DC0E4A72
:100D00001268012199400A4012F00F0FCCD1013333
:100D10000130F2E7044B00221A60522030BC7047C9
:100D20005220FBE73C400240800400208404002065
:100D300010000020000000203C7000401C4A136896
:100D400043F0080313601B4B1B6813F0080FFAD025
:100D5000194B1A4A1A600F2204331A6000231849EB
:100D60000B6004310B60A1F596710B6020310B60B4
:100D7000144B1A600E4A136843F0100313600D4BB6
:100D80001B6813F0100FFAD00F4B0C4A1A600F2398
:100D90000E4A136000220E490A6004310A60A1F570
:100DA00096710B6020310A600A4A1360704700BFD9
:100DB00008E60F4008EA0F40207500404B434F4CB7
:100DC000287500401C750040204502402445024023
:100DD000284502401C450240044B1A6842F00402B8
:100DE0001A601A6822F004021A607047104000402E
:100DF00038B5074B00221A6000F00F050009054CBA
:100E00002070FFF7E9FF2570FFF7E6FF38BD00BF50
:100E100020400040FC53004008B5054B08221A60F2
:100E200003F59E531C331870FFF7D6FF08BD00BFB3
:100E30002040004010B500F00F040009FFF7ECFF60
:100E40002046FFF7E9FF10BD10B50024144B1C60CD
:100E5000103B1C600320FFF7CBFF0320FFF7C8FF08
:100E60000320FFF7C5FF0220FFF7C2FF0220FFF7B4
:100E7000BFFF0820FFF7BCFF2046FFF7B9FF08209F
:100E8000FFF7B6FF2046FFF7B3FF0120FFF7B0FFE3
:100E90002046FFF7ADFF0620FFF7AAFF10BD00BFF9
:100EA0002040004008B50120FFF7A2FF5320FFF7C4
:100EB000C1FF5920FFF7BEFF4E20FFF7BBFF5420B4
:100EC000FFF7B8FF4120FFF7B5FF5820FFF7B2FF4B
:100ED0002020FFF7AFFF4520FFF7ACFF5220FFF7C0
:100EE000A9FF5220FFF7A6FF4F20FFF7A3FF5220D4
:100EF000FFF7A0FF08BD00001D4A136843F001037F
:100F000013601C4B1B6813F0010FFAD01A4B1B4ADD
:100F10001A600C231A4A136000221A490A6004312D
:100F20000A60A1F596710B6020310A60164A1360C1
:100F300002F57A22EC32136843F0020313600D4B82
:100F40001B6813F0020FFAD0104B0C4A1A600F23E3
:100F50000F4A136000220F490A6004310A60A1F5AC
:100F600096710B6020310A600B4A1360704700BF16
:100F700008E60F4008EA0F40204500404B434F4C25
:100F800024450040284500401C45004020550040B5
:100F900024550040285500401C55004008B54E20FF
:100FA000FFF748FF4F20FFF745FF2020FFF742FFE4
:100FB0004920FFF73FFF4E20FFF73CFF5020FFF78F
:100FC00039FF5520FFF736FF5420FFF733FF08BDE8
:100FD000024A136801331360704700BF8804002081
:100FE000014B00221A60704788040020024B1B68E6
:100FF000024AD054704700BF88040020200000201F
:1010000000230F2B04DC034A3021D1540133F8E7CD
:10101000704700BF2000002008B5FFF7E1FFFFF791
:10102000EFFF08BD054B00221A6005496FF07F40B5
:10103000086004310A6005221A60704710E000E081
:1010400014E000E0164B1A6842F000421A601A6879
:1010500042F400621A6013490A6822F4F86202F549
:10106000A8620A601A6822F070021A601A6822F4F4
:1010700000521A601A6842F080421A601A6822F020
:10108000FE5202F180721A60074B1B6813F0400F8A
:10109000FAD0034A136823F400631360704700BF5B
:1010A00070E00F4060E00F4050E00F400000000093
:1010B000F0B585B0FFF7C6FFFFF7B4FFFFF71CFFE1
:1010C000FFF7C2FEFFF73AFEFFF7A6FF29E0782BF5
:1010D00000F08A809DF80F00FFF7ACFE9DF80F002E
:1010E000FFF784FFFFF774FFA14B1B68002B40F054
:1010F0002D81A04A13689DF80F009F49C854013301
:1011000013600EE00120FFF773FEFFF785FF002359
:1011100005E000229849CA549849CA540133062B65
:10112000F7DDFFF7BDFD8DF80F009DF80F30DBB246
:10113000532BCCD82B2BCDD32B3B282BCAD801A299
:1011400052F823F0E9110000D5100000E911000069
:10115000D5100000E9110000D5100000D5100000E6
:10116000D5100000D5100000D5100000D5100000EB
:10117000D5100000D5100000D5100000D5100000DB
:10118000D5100000D5100000D5100000FD110000A2
:10119000D5100000D5100000D5100000D5100000BB
:1011A000D510000005110000D5100000E911000065
:1011B000D5100000D5100000D5100000D51000009B
:1011C000D5100000D5100000D5100000D51000008B
:1011D000D5100000D5100000D5100000D51000007B
:1011E00023110000231100000120614B18609DF8BD
:1011F0000F20634B1A70FFF7FBFD92E70120FFF70A
:10120000F7FD0220FFF7F4FD5E4B1B78302B7CD0FE
:10121000584B1A68013A00215748FFF70DFD044664
:101220000D46594B1A68013A00215448FFF704FD56
:10123000CDE9000122462B4651490878FFF7A4FC6E
:1012400005460C4646A3D3E90023284624F0004176
:10125000FFF75CFC00285BD100224C4B284621465E
:10126000FFF72AF807460E463DA3D3E90023384688
:1012700026F00041FFF74AFC00284CD10022444BE5
:1012800028462146FFF718F807460E4634A3D3E94F
:101290000023384626F00041FFF738FC002841D1F2
:1012A00000223C4B28462146FFF706F807460E462B
:1012B0002BA3D3E90023384626F00041FFF726FC94
:1012C000D0BB29A3D3E9002328462146FEF7F4FF2B
:1012D00005460C4622A3D3E90023284624F000410A
:1012E000FFF714FC00283FF41CAF3620FFF7A2FDE7
:1012F0003920FFF79FFD3120FFF79CFD3320FFF7DA
:1013000099FD3420FFF796FD0BE7FFF747FE08E74E
:10131000FFF7C8FD05E73120FFF78CFD3020FFF710
:1013200089FDFEE63220FFF785FD2E20FFF782FDC6
:101330003520FFF77FFDF4E63120FFF77BFD3320FA
:10134000FFF778FD3220FFF775FDEAE60E4A1368D5
:101350009DF80F000949C85401331360E1E600BF4E
:101360008DEDB5A0F7C6B03E00000000E0E0F04013
:10137000900400208C04002098060020A006002085
:10138000A706002020000020940400200000244034
:101390000000044000806040FEE7FEE7FEE700003A
:1013A00008B50D4B0D4A0E498B4204D252F8041B6E
:1013B00043F8041BF7E70C480C494FF00002884241
:1013C000B8BF40F8042BFADB064A136843F47003F5
:1013D0001360FFF76DFE08BD000000200427000029
:1013E0006404002088ED00E064040020CC060020A6
:1013F0002DE9F04F8FB01D4606460F46144600F00B
:1014000093F9A34B93F90090B9F1FF3FCDE90001A7
:1014100039D022462B4620462946FFF79FFB8346BC
:10142000002830D132463B4630463946FFF796FB1E
:101430008046002840F0DC804FF0000A4FF0000B9F
:1014400052465B4630463946FFF756FB00B35246DC
:101450005B4620462946FFF74FFB0390002851D0FA
:101460008C4BCDF830800122CDE90667CDE90845E7
:10147000CDE90AAB04920593B9F1000F69D0864C0F
:101480000023CDE90034DDE900010FB0BDE8F08FA5
:10149000DDE9000100F090FF804600286DD04FF09C
:1014A00000084FF00009DDE9000142464B46FFF716
:1014B00023FB0028E7D03046394600F07DFF0028A6
:1014C000E1D02046294600F077FF0028DBD0704BA2
:1014D000704A93F90030059204210022022BCDE9D5
:1014E0000667CDE90845CDE90A8904910C9204D03C
:1014F00004A800F067FF002830D101F077F822231C
:1015000003602BE02046294600F056FF0028BAD0A1
:1015100052465B4620462946FFF7F8FA0028B2D02B
:101520005B4B03995B4A93F900300C910121CDE9A3
:101530000667CDE90845CDE90412002B75D1CDE948
:101540000AAB04A800F03EFF002874D00C9B5BB1EE
:1015500006E004A800F036FF002871D00C9B1BB1F8
:1015600001F044F80C9B0360DDE90A34CDE9003456
:10157000DDE900010FB0BDE8F08F3046394600F0DC
:101580001BFF00288BD02046294600F015FF0028BD
:1015900085D0DDE9002319461046FFF7DFFA3C4B02
:1015A000002840F09C8093F900800C900323049362
:1015B000384B0593CDE90667CDE9084552465B46B1
:1015C00030463946B8F1000F3FD1344F4FF06046F6
:1015D000CDE90A67FFF79AFA002841D104A800F084
:1015E000F1FE0028B2D101F001F822230360ADE73B
:1015F0000022002320462946FFF77EFA00283FF408
:1016000042AF2549234BCDF830B001220020B9F17B
:10161000020FCDE90667CDE90845CDE90A0104923C
:10162000059396D1CDE900012DE71D490020022B3D
:10163000CDE90A0185D100F0D9FF2123036085E7B8
:1016400000F0D4FF2123036088E7164F0026CDE980
:101650000A67FFF75BFA58BBB8F1020FC3D0BDE7CA
:10166000114B002220462946FEF7DEFF04460D46B8
:1016700000F0B0FE22462B46FFF73EFA58BB0B4B5C
:1016800003494FF06042CDE90A2391F90080E3E776
:1016900030000020E82600000000F03FFFFFEF4789
:1016A0000000F0FF0000F07F0000E03FFFFFEFC709
:1016B000194B002220462946FEF7B6FF04460D4688
:1016C00000F088FE22462B46FFF716FA18B9134B96
:1016D0000022CDE90A23124B93F90080BCE793F96D
:1016E0000090104BCDF830800122CDE90667CDE99E
:1016F0000845CDE90423B9F1000F3FF420AF52466D
:101700005B4650465946FFF7B9F8B9F1020FCDE9EB
:101710000A0190D015E700BF0000E03F0000F0FF95
:1017200030000020E82600002DE9F04F23F00045AE
:10173000904699461E46134655EA080293B035D0A6
:101740006B4A009021F00044944283468A460F463B
:1017500025DC34D0954222DC654A95421DD0002F0D
:1017600036DB00220292002B4CD1614B9D4200F0EF
:101770009780604B9D4200F0A580B6F1804F00F04D
:10178000B9845D4B9E423DD1002F3BDB584651460C
:1017900013B0BDE8F04F00F047BD002BDFD0009B39
:1017A00004F1404404F5801423430BD1514C002331
:1017B000CDE90034DDE9000113B0BDE8F08F08B9D0
:1017C000A542C9DD4D4813B0BDE8F04F00F0FCBDA7
:1017D0004B4A95427EDCA2F1547295420EDD2A15E9
:1017E000A2F2FF32142A40F38F84C2F1340223FAAA
:1017F00002F101FA02F29A4200F0DC840022029225
:10180000002BB6D05846514600F0D2FD5B46CDE9DC
:10181000000133BB24B1374B27F040429A4220D11C
:10182000002E07DADDE9002332490020FFF726F811
:10183000CDE90001002FBDDA029B04F1404404F51C
:101840008014234340F08584DDE9002310461946C7
:10185000FEF732FD02460B46FFF710F8CDE9000116
:10186000A8E7029AFB0F013B0A93134335D0254B9F
:101870009D424BDD03F104739D42234B40F3C8832B
:101880009C4240F35483002E40F3548316A3D3E9C3
:10189000002310461946FEF7C7FECDE9000189E78F
:1018A000009A04F1404303F5801313433FF47EAFE5
:1018B000154B9C4240F36883002EC0F23B83CDE978
:1018C000008977E7002EC0F20B8458465146CDE9D7
:1018D00000016FE70222029245E75A4658465346F6
:1018E0005146B5E7AFF300809C7500883CE4377E35
:1018F0000000F07F0000F03F0000E03FEC26000019
:10190000FFFF3F430000E041FFFFEF3FD44B3B4070
:10191000002B40F04683DDE90001D24B0022FEF7A8
:1019200083FECDE900010C466FF034062315CE4D41
:10193000C4F31302A3F2FF3342F07F549919AA4271
:101940000B9144F4401440F32783C84B9A4240F370
:101950000D8400220023CDE9082301310B91A4F569
:101960008014CDE91023C24B0022CDE906230025C7
:10197000DDE90001DDE9062321468246FEF79CFCF5
:10198000A346DDE9062306460F4650462146CDE92B
:101990000CABFEF793FC02460B460020B449FEF761
:1019A0006DFF0A460146CDE90E121346394602463E
:1019B0003046FEF739FE641044F0005482468B46F0
:1019C00004F500238C46CDE904AB5919D346002316
:1019D000CDE900BC0093DDE900AB002004460D46D4
:1019E00002460B4650465946FEF71EFE02460B467F
:1019F00030463946FEF760FCDDE9062306460F4611
:101A000020462946FEF758FC02460B46DDE90C014C
:101A1000FEF752FC52465B46FEF706FE02460B46B8
:101A200030463946FEF748FCDDE90E23FEF7FCFDA3
:101A300004460D46DDE9040102460B46CDE90645A4
:101A4000FEF7F2FD74A3D3E9002304460D46FEF72A
:101A5000EBFD73A3D3E90023FEF730FC22462B46AF
:101A6000FEF7E2FD70A3D3E90023FEF727FC224630
:101A70002B46FEF7D9FD6EA3D3E90023FEF71EFC2B
:101A800022462B46FEF7D0FD6BA3D3E90023FEF7D9
:101A900015FC22462B46FEF7C7FD69A3D3E90023B8
:101AA000FEF70CFC224606460F462B4620462946EA
:101AB000FEF7BAFD02460B4630463946FEF7B4FD46
:101AC000524604460D465B46DDE90401FEF7F6FB8F
:101AD000DDE90623FEF7A8FD22462B46FEF7EEFBC6
:101AE000524604460D465B4650465946FEF79CFD5D
:101AF00026462F4604460D465E4B0022CDE90C4596
:101B0000FEF7DCFB32463B46FEF7D8FB009C0D4659
:101B100022462B4650465946FEF786FD554B8246D7
:101B20008B46002220462946FEF7C6FBDDE90C2342
:101B3000FEF7C2FB02460B4630463946FEF7BCFBB9
:101B4000DDE90423FEF770FD224606460F462B46CC
:101B5000DDE90601FEF768FD02460B4630463946D0
:101B6000FEF7ACFB06460F4602460B46504659466A
:101B7000CDE904ABFEF7A2FB009C33A3D3E900231D
:101B800020460D46FEF750FDDDE9042382468B46D4
:101B900020462946FEF790FB02460B463046394662
:101BA000FEF78AFB2AA3D3E90023FEF73DFD2AA313
:101BB000D3E9002306460F4620462946FEF734FDAA
:101BC00002460B4630463946FEF778FBDDE9102326
:101BD000FEF774FB04460B980D46FEF7BBFC22464D
:101BE00006460F462B4650465946CDE90445FEF7BA
:101BF00065FBDDE90823FEF761FB32463B46FEF755
:101C00005DFB009C32463B4620460D46FEF754FBEA
:101C100032E000BFAFF30080EF4E454A287ECA3F56
:101C200065DBC9934A86CD3F01411DA96074D13F50
:101C30004D268F515555D53FFFAB6FDBB66DDB3F62
:101C4000033333333333E33F000000E009C7EE3F93
:101C5000FD033ADC09C7EE3FF5015B14E02F3EBE01
:101C60000000F07F000040438E98030079B60B001F
:101C70000000F03F00000840DDE90823FEF71CFBF0
:101C800052465B46FEF718FB02460B46DDE90401AF
:101C9000FEF712FB82468B46029B0A9A013B1343D6
:101CA0000CBFD54BD54B0022CDE904230023CDE951
:101CB00000890093DDE90067404632463B464946CD
:101CC000FEF7FAFA22462B46FEF7AEFC4246CDE975
:101CD00002014B4650465946FEF7A6FC02460B460B
:101CE000DDE90201FEF7EAFA32463B4682468B46C0
:101CF00020462946FEF798FC0B46024606460F464C
:101D000050465946FEF7DAFABD4B994204460D4655
:101D1000884640F3148101F13F4303F5E003034398
:101D200040F00782A0A3D3E9002350465946FEF7AE
:101D3000C5FA3246CDE900013B4620462946FEF76A
:101D4000BBFA02460B46DDE90001FEF7FDFE002866
:101D500040F0EF81C8F30A534FF48012A3F2FE3330
:101D600042FA03F34344A749C3F30A52A2F2FF32F3
:101D700041FA02FCC3F3130523EA0C01C2F1140477
:101D800045F48015B8F1000F0B4645FA04F10291B5
:101D90004FF00000B8BF49420246B8BF029130463A
:101DA0003946FEF789FA0B46024606460F4650466C
:101DB0005946FEF783FA029B1B050D46009300244B
:101DC0007BA3D3E9002320462946FEF72DFC3246AB
:101DD000804689463B4620462946FEF76DFA024674
:101DE0000B4650465946FEF767FA73A3D3E9002322
:101DF000FEF71AFC72A3D3E9002306460F462046DD
:101E00002946FEF711FC02460B4630463946FEF7DE
:101E100055FA06460F4602460B4640464946FEF72F
:101E20004DFA42464B460D460446FEF745FA024639
:101E30000B4630463946FEF73FFA2B4682468B4624
:101E4000224629462046FEF7EFFB5FA3D3E9002395
:101E500006460F46FEF7E8FB5DA3D3E90023FEF735
:101E60002BFA32463B46FEF7DFFB5BA3D3E90023A8
:101E7000FEF724FA32463B46FEF7D6FB58A3D3E9D9
:101E80000023FEF719FA32463B46FEF7CDFB56A378
:101E9000D3E90023FEF712FA32463B46FEF7C4FBB5
:101EA00002460B4620462946FEF706FA06460F462E
:101EB00002460B4620462946FEF7B6FB0022804626
:101EC0008946304639464FF08043FEF7F5F9024621
:101ED0000B4640464946FEF7D1FC524606460F46A1
:101EE0005B4629462046FEF79FFB52465B46FEF7BF
:101EF000E5F902460B4630463946FEF7DDF92B463A
:101F00002246FEF7D9F902460B4600203B49FEF770
:101F1000D3F9009D0D44B5F5801FC0F247812946D5
:101F2000DDE90423FEF780FBCDE9000142E4002E49
:101F3000FFF6ACAC00230024CDE900343AE4DFF82E
:101F4000CCC021F00043634540F3EB802E4B0B44A3
:101F500003430AD132463B46FEF7AEF952465B4692
:101F6000FEF7E8FD00283FF4F5AE21A3D3E90023F6
:101F7000DDE90401FEF758FB1DA3D3E90023FEF7BA
:101F800053FBCDE9000115E4002ED3DA09F100433B
:101F9000CDF8008001930DE400220023CDE9082351
:101FA000DFE40026C2E400BFFE822B654715973CA4
:101FB00000000000432EE63FEF39FAFE422EE63FD6
:101FC000396CA80C615C20BED0A4BE726937663E35
:101FD000F16BD2C541BDBB3E2CDE25AF6A56113F29
:101FE00093BDBE166CC1663F3E5555555555C53F10
:101FF00059F3F8C21F6EA5010000F0BF0000F03FCA
:10200000FFFF8F40FFFF0F0000346F3FFFCB90407A
:102010009C428CDB804B9C423FF735ACDDE90001F4
:102020007D4B0022FEF748F96DA3D3E90023044657
:102030000D46FEF7F9FA6CA3D3E9002306460F46D6
:1020400020462946FEF7F0FAB246BB4606460F4642
:10205000724B002220462946FEF7E6FA02460B465E
:1020600063A1D1E90001FEF727F922462B46FEF7CE
:10207000DBFA02460B4600206949FEF71DF92246AD
:10208000CDE900012B4620462946FEF7CDFA02464F
:102090000B46DDE90001FEF7C7FA57A3D3E9002399
:1020A000FEF7C2FA02460B4630463946FEF704F9FF
:1020B00002460B4606460F4650465946FEF7FEF8C6
:1020C000002452465B4620460D46FEF7F5F80246D0
:1020D0000B4630463946FEF7EFF882468B46DBE585
:1020E0004D495A4653460020FEF7C8FBCDE9000192
:1020F000FFF760BB5A46584653465146FEF794FADE
:10210000CDE90001FFF756BB002B41D1C2F114020B
:1021100045FA02F101FA02F2AA4255D00293FFF702
:1021200028BB3F4A934256DCDDE900120091029140
:1021300045E633A3D3E90023DDE90401FEF774FA91
:102140002FA3D3E90023FEF76FFACDE90001FFF7D3
:1021500031BB029B012B7FF42DABDDE9004522460C
:1021600005F10043CDE90023FFF724BB26A3D3E903
:102170000023CDE9082326A3D3E90023CDE91023CA
:10218000284B0022CDE906234FF48025FFF7F0BB52
:102190005846514600F00CF95B46CDE90001002B92
:1021A0007FF49BABCDF808B0FFF734BB029A00F088
:1021B000A3F9B5E601F00101C1F102020292002B80
:1021C0003FF4D7AAFFF71EBB01F00101C1F10203E2
:1021D0000293FFF7CEBA1B15BEE500BFAFF3008038
:1021E000000000604715F73F44DF5DF80BAE543E3A
:1021F000555555555555D53FFE822B654715F73F2B
:102200009C7500883CE4377E0000004003B8E23F44
:1022100006D0CF43EBFD4C3E0000F03F0000D03F26
:102220000000E03F0000F83F2DE9F0415F4F37EA42
:1022300001020E46054600F0978000290B46044631
:102240004EDD09155AD0C3F31303CA0743F48013B4
:10225000A1F2FF3E03D45B0003EBD4736400E20FF2
:102260004FF0000C02EB43034FEA6E0E640066462B
:1022700016254FF40012B118994202DC5B1A8E1831
:1022800094445B00013D03EBD4734FEA52024FEAE2
:102290004404F0D12F4620204FF0004209E03DD009
:1022A000E10F01384FEA520201EB43034FEA4404C5
:1022B0003DD0B34202EB0501F1DD002901EB02053F
:1022C00009DBB0469B1BA14288BF03F1FF33641AB0
:1022D00017444646E4E7002DF3DB06F10108F1E779
:1022E00021F00042024357D000294BD1E20A1539B0
:1022F00064051346002AF9D0D70252D400205B00AF
:10230000DE02054600F10100F9D51A462346844055
:10231000C0F12000C3401343491B94E7A142BFD83A
:10232000002901EB0205D6DB98460023CFE72343C3
:1023300013D178084FEA6C0303F17F5303F50013C0
:102340001CF0010F18BF40F0004003EB0E55024691
:102350002B4610461946BDE8F0817B1C16BF781C41
:102360000CF1010C4008E5E702460B46FEF75CF96C
:102370002A463346FDF7A2FF02460B461046194691
:10238000BDE8F0810246FDF797FF02460B46FEF7D7
:1023900075FA02460B46DCE7024610461946BDE8D0
:1023A000F081234620204FF0FF35B3E70000F07F97
:1023B00021F00041704700BF41F0004000F580105F
:1023C000C00F70470020704701490020704700BFD0
:1023D0000000F87F2DE9F043C1F30A5CACF2FF3650
:1023E000132E83B002460B460D464FEAD1740746C2
:1023F00031DC002E4FDB3D49314103EA010010433F
:102400002ED003EA510352EA03074FEA51010CD0E0
:102410004FF48023132E25EA010143FA06F545EA1D
:1024200001050CBF4FF000470027314901EBC40400
:102430002B46D4E900453A4620462946FDF73EFFA3
:10244000CDE90001DDE9000122462B46FDF734FF0E
:1024500003B0BDE8F083332E07DDB6F5806F42D0C0
:102460001046194603B0BDE8F083ACF2134C4FF0B0
:10247000FF3121FA0CF10842F2D010EA51024FEA82
:102480005103D2D04FF0804220EA030742FA0CFCFD
:1024900047EA0C07C9E721F000410143E0D0C3F34C
:1024A0001301014312484F420F4300EBC401D1E92D
:1024B00000895D0C3F0B6D0407F4002747EA050314
:1024C00040464946FDF7FAFECDE90001DDE900018D
:1024D00042464B46FDF7F0FE21F0004545EAC47147
:1024E00003B0BDE8F083FDF7E9FEBBE7FFFF0F0097
:1024F000F026000000000000F8B5C1F30A530446BE
:102500000D460E46174673BB21F000460346334383
:1025100028D0314B0022FEF787F8304B9F4204460B
:102520000D461ADBC1F30A530E46363B3B4440F2DC
:10253000FE72934220DC002B3CDC13F1350F2CDAC9
:102540004CF250339F4217DC05F0004343F0D27148
:1025500041F4B731224841F01F011BA3D3E9002306
:10256000FEF762F8F8BD40F2FF729342DED10246F8
:102570000B46FDF7A3FEF8BD05F0004343F0FC4118
:1025800041F45F1141F4105111A3D3E90023154820
:1025900041F03C01FEF748F8F8BD26F0FF4626F46E
:1025A000E006363346EA035120460F4B0022FEF781
:1025B0003BF8F8BD26F0FF4626F4E006204646EA42
:1025C0000351F8BDAFF3008059F3F8C21F6EA501A7
:1025D0009C7500883CE4377E00005043B03CFFFF10
:1025E00059F3F8C29C7500880000903C014B1868B4
:1025F000704700BF34000020024B13B1024800F0C6
:1026000005B87047000000001926000000230146AD
:102610001A46184600F01AB838B5084B084D5B1B2F
:102620009C1007D0043B1D44013C55F804399847E1
:10263000002CF9D1BDE8384000F054B8000000008B
:1026400000000000704700BF704700BF2DE9F04751
:10265000DFF880A00646DAF8000098460F4691465B
:10266000FFF7F0FF1A4B1B68D3F8484124B36568A5
:102670001F2D26DC5EB9AB1C0135DAF80000656061
:1026800044F82370FFF7E0FF0020BDE8F08704EB7B
:1026900085030121C3F88890D4F88821A9400A4312
:1026A000022EC4F88821C3F80881E4D1D4F88C3113
:1026B0001943C4F88C11DEE703F5A674C3F848414A
:1026C000D5E7DAF80000FFF7BFFF4FF0FF30DCE797
:1026D000002700006004002095020000F92500009A
:0826E000F8B500BFF8B500BF1A
:1026E800706F770000000000000000000000304319
:0C26F80000000000000030C3380000208B
:102704003132332B3435362D3738392E3D3043535F
:10271400313233783435362F373839453D304353E9
:1027240030303030303030303030303030303030A5
:1027340001000000380000200000000024030020F5
:102744008C030020F40300200000000000000000BF
:102754000000000000000000000000000000000075
:102764000000000000000000000000000000000065
:102774000000000000000000000000000000000055
:102784000000000000000000000000000000000045
:102794000000000000000000000000000000000035
:1027A4000000000000000000000000000000000025
:1027B4000000000000000000000000000000000015
:1027C4000000000000000000000000000000000005
:1027D40000000000000000000000000000000000F5
:1027E40001000000000000000E33CDAB34126DE692
:1027F400ECDE05000B0000000000000000000000FB
:1028040000000000000000000000000000000000C4
:1028140000000000000000000000000000000000B4
:1028240000000000000000000000000000000000A4
:102834000000000000000000000000000000000094
:042B6400A80600209F
:04000003000013A145
:00000001FF
